{
  "_format": "hh-sol-artifact-1",
  "contractName": "ConfluxPaymentSplitter",
  "sourceName": "contracts/ConfluxPaymentSplitter.sol",
  "abi": [
    {
      "inputs": [],
      "stateMutability": "nonpayable",
      "type": "constructor"
    },
    {
      "anonymous": false,
      "inputs": [
        {
          "indexed": false,
          "internalType": "address",
          "name": "account",
          "type": "address"
        },
        {
          "indexed": false,
          "internalType": "uint256",
          "name": "shares",
          "type": "uint256"
        }
      ],
      "name": "PayeeAdded",
      "type": "event"
    },
    {
      "anonymous": false,
      "inputs": [
        {
          "indexed": false,
          "internalType": "address",
          "name": "from",
          "type": "address"
        },
        {
          "indexed": false,
          "internalType": "uint256",
          "name": "amount",
          "type": "uint256"
        }
      ],
      "name": "PaymentReceived",
      "type": "event"
    },
    {
      "anonymous": false,
      "inputs": [
        {
          "indexed": false,
          "internalType": "address",
          "name": "to",
          "type": "address"
        },
        {
          "indexed": false,
          "internalType": "uint256",
          "name": "amount",
          "type": "uint256"
        }
      ],
      "name": "PaymentReleased",
      "type": "event"
    },
    {
      "inputs": [
        {
          "internalType": "address",
          "name": "account",
          "type": "address"
        },
        {
          "internalType": "uint256",
          "name": "shares_",
          "type": "uint256"
        }
      ],
      "name": "addPayee",
      "outputs": [],
      "stateMutability": "nonpayable",
      "type": "function"
    },
    {
      "inputs": [],
      "name": "deposit",
      "outputs": [],
      "stateMutability": "payable",
      "type": "function"
    },
    {
      "inputs": [],
      "name": "owner",
      "outputs": [
        {
          "internalType": "address",
          "name": "",
          "type": "address"
        }
      ],
      "stateMutability": "view",
      "type": "function"
    },
    {
      "inputs": [
        {
          "internalType": "uint256",
          "name": "index",
          "type": "uint256"
        }
      ],
      "name": "payee",
      "outputs": [
        {
          "internalType": "address",
          "name": "",
          "type": "address"
        }
      ],
      "stateMutability": "view",
      "type": "function"
    },
    {
      "inputs": [
        {
          "internalType": "address",
          "name": "account",
          "type": "address"
        }
      ],
      "name": "pending",
      "outputs": [
        {
          "internalType": "uint256",
          "name": "",
          "type": "uint256"
        }
      ],
      "stateMutability": "view",
      "type": "function"
    },
    {
      "inputs": [
        {
          "internalType": "address payable",
          "name": "account",
          "type": "address"
        }
      ],
      "name": "release",
      "outputs": [],
      "stateMutability": "nonpayable",
      "type": "function"
    },
    {
      "inputs": [
        {
          "internalType": "address",
          "name": "account",
          "type": "address"
        }
      ],
      "name": "released",
      "outputs": [
        {
          "internalType": "uint256",
          "name": "",
          "type": "uint256"
        }
      ],
      "stateMutability": "view",
      "type": "function"
    },
    {
      "inputs": [
        {
          "internalType": "address",
          "name": "account",
          "type": "address"
        }
      ],
      "name": "shares",
      "outputs": [
        {
          "internalType": "uint256",
          "name": "",
          "type": "uint256"
        }
      ],
      "stateMutability": "view",
      "type": "function"
    },
    {
      "inputs": [],
      "name": "totalReleased",
      "outputs": [
        {
          "internalType": "uint256",
          "name": "",
          "type": "uint256"
        }
      ],
      "stateMutability": "view",
      "type": "function"
    },
    {
      "inputs": [],
      "name": "totalShares",
      "outputs": [
        {
          "internalType": "uint256",
          "name": "",
          "type": "uint256"
        }
      ],
      "stateMutability": "view",
      "type": "function"
    },
    {
      "stateMutability": "payable",
      "type": "receive"
    }
  ],
  "bytecode": "0x608060405234801561001057600080fd5b50600080546001600160a01b03191633179055610881806100326000396000f3fe6080604052600436106100955760003560e01c80638da5cb5b116100595780638da5cb5b146101975780639852595c146101b7578063ce7c2ac2146101ed578063d0e30db014610223578063e33b7de31461022b57600080fd5b806318f9b023146100d957806319165587146100fb5780633a98ef391461011b5780635eebea201461013f5780638b83209b1461015f57600080fd5b366100d457604080513381523460208201527f6ef95f06320e7a25a04a175ca677b7052bdd97131872c2192525a629f51be770910160405180910390a1005b600080fd5b3480156100e557600080fd5b506100f96100f4366004610758565b610240565b005b34801561010757600080fd5b506100f9610116366004610784565b61041a565b34801561012757600080fd5b506001545b6040519081526020015b60405180910390f35b34801561014b57600080fd5b5061012c61015a366004610784565b610611565b34801561016b57600080fd5b5061017f61017a3660046107a1565b610652565b6040516001600160a01b039091168152602001610136565b3480156101a357600080fd5b5060005461017f906001600160a01b031681565b3480156101c357600080fd5b5061012c6101d2366004610784565b6001600160a01b031660009081526004602052604090205490565b3480156101f957600080fd5b5061012c610208366004610784565b6001600160a01b031660009081526003602052604090205490565b6100f9610682565b34801561023757600080fd5b5060025461012c565b6000546001600160a01b0316331461028b5760405162461bcd60e51b81526020600482015260096024820152682737ba1037bbb732b960b91b60448201526064015b60405180910390fd5b6001600160a01b0382166102d05760405162461bcd60e51b815260206004820152600c60248201526b7a65726f206164647265737360a01b6044820152606401610282565b6000811161030d5760405162461bcd60e51b815260206004820152600a6024820152690736861726573203d20360b41b6044820152606401610282565b6001600160a01b038216600090815260036020526040902054156103635760405162461bcd60e51b815260206004820152600d60248201526c185b1c9958591e481859191959609a1b6044820152606401610282565b6005805460018082019092557f036b6384b5eca791c62761152d0c79bb0604c104a5fb6f4eb0703f3154bb3db00180546001600160a01b0319166001600160a01b03851690811790915560009081526003602052604081208390558154839291906103cf9084906107d0565b9091555050604080516001600160a01b0384168152602081018390527f40c340f65e17194d14ddddb073d3c9f888e3cb52b5aae0c6c7706b4fbc905fac910160405180910390a15050565b6001600160a01b03811660009081526003602052604090205461046b5760405162461bcd60e51b81526020600482015260096024820152686e6f2073686172657360b81b6044820152606401610282565b60006002544761047b91906107d0565b6001600160a01b038316600090815260046020526040812054919250906104a590849084906106fa565b9050600081116104ec5760405162461bcd60e51b81526020600482015260126024820152716e6f7468696e6720746f2072656c6561736560701b6044820152606401610282565b6001600160a01b038316600090815260046020526040812080548392906105149084906107d0565b92505081905550806002600082825461052d91906107d0565b90915550506040516000906001600160a01b0385169083908381818185875af1925050503d806000811461057d576040519150601f19603f3d011682016040523d82523d6000602084013e610582565b606091505b50509050806105c95760405162461bcd60e51b8152602060048201526013602482015272115512081d1c985b9cd9995c8819985a5b1959606a1b6044820152606401610282565b604080516001600160a01b0386168152602081018490527fdf20fd1e76bc69d672e4814fafb2c449bba3a5369d8359adf9e05e6fde87b056910160405180910390a150505050565b6000806002544761062291906107d0565b6001600160a01b03841660009081526004602052604090205490915061064b90849083906106fa565b9392505050565b600060058281548110610667576106676107e9565b6000918252602090912001546001600160a01b031692915050565b600034116106c05760405162461bcd60e51b815260206004820152600b60248201526a139bc810d196081cd95b9d60aa1b6044820152606401610282565b604080513381523460208201527f6ef95f06320e7a25a04a175ca677b7052bdd97131872c2192525a629f51be770910160405180910390a1565b6001546001600160a01b0384166000908152600360205260408120549091839161072490866107ff565b61072e9190610816565b6107389190610838565b949350505050565b6001600160a01b038116811461075557600080fd5b50565b6000806040838503121561076b57600080fd5b823561077681610740565b946020939093013593505050565b60006020828403121561079657600080fd5b813561064b81610740565b6000602082840312156107b357600080fd5b5035919050565b634e487b7160e01b600052601160045260246000fd5b808201808211156107e3576107e36107ba565b92915050565b634e487b7160e01b600052603260045260246000fd5b80820281158282048414176107e3576107e36107ba565b60008261083357634e487b7160e01b600052601260045260246000fd5b500490565b818103818111156107e3576107e36107ba56fea2646970667358221220cb849f58603f8aac88175017b610219471e8923c07b3e280e0881f944428518a64736f6c63430008130033",
  "linkReferences": {},
  "deployedLinkReferences": {}
}